:020000040800F2
:100000000000022431070008C10A0008CF0A0008D6
:10001000D50A0008DB0A0008E10A00080000000019
:10002000000000000000000000000000E70A0008D7
:10003000F50A000800000000030B0008110B00087F
:100040008107000881070008810700088107000870
:100050008107000881070008810700088107000860
:100060008107000881070008810700088107000850
:100070008107000881070008810700088107000840
:100080008107000881070008810700088107000830
:100090008107000881070008810700088107000820
:1000A0008107000881070008810700088107000810
:1000B0008107000881070008810700088107000800
:1000C00081070008810700088107000881070008F0
:1000D0008107000881070008810700081D0B000840
:1000E0008107000881070008000000008107000860
:1000F00081070008810700088107000881070008C0
:1001000081070008810700088107000881070008AF
:10011000810700088107000881070008810700089F
:10012000810700088107000881070008810700088F
:10013000810700088107000881070008810700087F
:10014000810700088107000800000000000000008F
:10015000810700088107000881070008810700085F
:10016000810700088107000881070008810700084F
:1001700081070008810700088107000800000000CF
:10018000810700088107000881070008810700082F
:10019000810700088107000881070008810700081F
:1001A000810700088107000881070008810700080F
:1001B00081070008810700088107000881070008FF
:1001C00081070008810700088107000881070008EF
:1001D00081070008810700088107000881070008DF
:1001E00081070008810700088107000881070008CF
:1001F00081070008810700088107000881070008BF
:1002000081070008810700088107000881070008AE
:10021000810700088107000881070008810700089E
:10022000810700088107000881070008000000001E
:10023000810700088107000881070008810700087E
:10024000810700088107000881070008810700086E
:10025000810700088107000881070008810700085E
:10026000810700088107000881070008810700084E
:10027000810700088107000881070008810700083E
:1002800081070008810700088107000800000000BE
:08029000810700088107000846
:1002A00010B5054C237833B9044B13B10448AFF3B0
:1002B00000800123237010BD9C0200240000000078
:1002C000FC3B080808B5034B1BB103490348AFF3D7
:1002D000008008BD00000000A0020024FC3B0808CC
:1002E000A3F5803A704700BF174B002B08BF134B94
:1002F0009D46FFF7F5FF00218B460F461348144A31
:10030000121A81F0E7FD0E4B002B00D098470D4BE1
:10031000002B00D098470020002104000D000D485C
:10032000002802D00C48AFF3008081F067FD200068
:10033000290001F079FC81F04DFD00BF00000800AC
:100340000000000000000000000000009C020024EB
:100350004C0500240000000000000000D8D308086D
:10036000000000249C0200249C0200244C05002470
:1003700053B94AB9002908BF00281CBF4FF0FF310C
:100380004FF0FF3000F074B9ADF1080C6DE904CE08
:1003900000F006F8DDF804E0DDE9022304B0704760
:1003A0002DE9F047089D04468E46002B4DD18A4228
:1003B000944669D9B2FA82F252B101FA02F3C2F15B
:1003C000200120FA01F10CFA02FC41EA030E9440EC
:1003D0004FEA1C48210CBEFBF8F61FFA8CF708FB0D
:1003E00016E341EA034306FB07F199420AD91CEBE5
:1003F000030306F1FF3080F01F81994240F21C8117
:10040000023E63445B1AA4B2B3FBF8F008FB10335E
:1004100044EA034400FB07F7A7420AD91CEB040493
:1004200000F1FF3380F00A81A74240F20781644463
:10043000023840EA0640E41B00261DB1D4400023E8
:10044000C5E900433146BDE8F0878B4209D9002D4C
:1004500000F0EF800026C5E9000130463146BDE8D6
:10046000F087B3FA83F6002E4AD18B4202D3824240
:1004700000F2F980841A61EB030301209E46002DEF
:10048000E0D0C5E9004EDDE702B9FFDEB2FA82F244
:10049000002A40F09280A1EB0C014FEA1C471FFAA2
:1004A0008CFE0126200CB1FBF7F307FB131140EA89
:1004B00001410EFB03F0884208D91CEB010103F156
:1004C000FF3802D2884200F2CB804346091AA4B218
:1004D000B1FBF7F007FB101144EA01440EFB00FEEC
:1004E000A64508D91CEB040400F1FF3102D2A64551
:1004F00000F2BB800846A4EB0E0440EA03409CE7F0
:10050000C6F12007B34022FA07FC4CEA030C20FA9C
:1005100007F401FA06F31C43F9404FEA1C4900FABC
:1005200006F3B1FBF9F8200C1FFA8CFE09FB181139
:1005300040EA014108FB0EF0884202FA06F20BD9AC
:100540001CEB010108F1FF3A80F08880884240F2FC
:100550008580A8F102086144091AA4B2B1FBF9F040
:1005600009FB101144EA014100FB0EFE8E4508D93B
:100570001CEB010100F1FF346CD28E456AD90238C0
:10058000614440EA0840A0FB0294A1EB0E01A142A5
:10059000C846A64656D353D05DB1B3EB080261EB13
:1005A0000E0101FA07F722FA06F3F1401F43C5E9ED
:1005B000007100263146BDE8F087C2F12003D84023
:1005C0000CFA02FC21FA03F3914001434FEA1C4765
:1005D0001FFA8CFEB3FBF7F007FB10360B0C43EA57
:1005E000064300FB0EF69E4204FA02F408D91CEB07
:1005F000030300F1FF382FD29E422DD90238634405
:100600009B1B89B2B3FBF7F607FB163341EA0341A4
:1006100006FB0EF38B4208D91CEB010106F1FF38F3
:1006200016D28B4214D9023E6144C91A46EA0046EA
:1006300038E72E46284605E70646E3E61846F8E67C
:100640004B45A9D2B9EB020864EB0C0E0138A3E7C5
:100650004646EAE7204694E74046D1E7D0467BE7A6
:10066000023B614432E7304609E76444023842E71E
:10067000704700BF034613F8012B002AFBD1181A5C
:10068000013870470000000000000000000000007A
:1006900001F0FF01102A2BDB10F0070F08D010F833
:1006A000013B013A8B422DD010F0070F42B3F6D137
:1006B000F0B441EA012141EA014122F007047FF050
:1006C00000070023F0E80256083C85EA010586EAA7
:1006D000010685FA47F5A3FA87F586FA47F6A5FAE3
:1006E00087F68EB9EED1F0BC01F0FF0102F00702EF
:1006F00032B110F8013B013A83EA010313B1F8D19A
:100700000020704701387047002D06BF354603387A
:10071000073815F0010F07D1013015F4807F02BFB3
:10072000013015F4C03F0130F0BC0138704700BF04
:10073000DFF834D0002103E00C4B5B584350043108
:100740000B480C4B42189A42F6D30B4A02E00023A6
:1007500042F8043B094B9A42F9D301F087FC81F03F
:100760004DFB01F061FA704700000224D8D308085D
:10077000000000249C0200249C0200244C0500245C
:10078000FEE7000080B5BAB000AF7860324BD3F816
:10079000E030314A43F00803C2F8E0302E4BD3F882
:1007A000E03003F008037B617B692B4BD3F8E0302A
:1007B000294A43F00803C2F8E030274BD3F8E03071
:1007C00003F008033B613B690223BB610323C7F8C5
:1007D0008C3007F1180318460FF0EEF91E4BD3F8D2
:1007E000E8301D4A43F48023C2F8E8301A4BD3F8AE
:1007F000E83003F48023FB60FB684FF48073C7F894
:10080000D4300223C7F8D8300123C7F8DC300323E3
:10081000C7F8E0300723C7F8E43007F1D4031946DE
:100820000E4812F00DFD4FF40073C7F8D4300723C3
:10083000C7F8E43007F1D4031946084812F000FD68
:1008400001220021272003F0CEFE272003F0E5FE41
:1008500000BFE837BD4680BD00440258000C025876
:1008600080B582B000AF78600E4BD3F890300D4A5F
:1008700043F48023C2F890300A4BD3F89030094AF1
:1008800023F48023C2F890304FF48071064812F0B0
:1008900087FE4FF40071044812F082FE00BF083753
:1008A000BD4680BD00440258000C025880B400AF21
:1008B00000BFBD465DF8047B704780B400AF0123E4
:1008C0001846BD465DF8047B704780B582B000AF26
:1008D0007860396081F078FA034616221A604FF08A
:1008E000FF3318460837BD4680BD80B582B000AFE3
:1008F00078604FF0FF317868FFF7E7FFFEE780B5DB
:1009000086B000AFF860B9607A6000237B610AE0CE
:10091000AFF300800146BB685A1CBA60CAB21A70B5
:100920007B6901337B617A697B689A42F0DB7B6883
:1009300018461837BD4680BD80B586B000AFF86058
:10094000B9607A6000237B6109E0BB685A1CBA6019
:100950001B781846AFF300807B6901337B617A69AD
:100960007B689A42F1DB7B6818461837BD4680BD2C
:1009700080B483B000AF78604FF0FF3318460C3777
:10098000BD465DF8047B704780B483B000AF7860EB
:1009900039603B684FF400525A60002318460C3708
:1009A000BD465DF8047B704780B483B000AF7860CB
:1009B000012318460C37BD465DF8047B704780B4B0
:1009C00085B000AFF860B9607A600023184614372C
:1009D000BD465DF8047B70470EB480B482B000AFB2
:1009E00078604FF0FF3318460837BD465DF8047B4A
:1009F00003B0704780B582B000AF786081F0E4F951
:100A000003460A221A604FF0FF3318460837BD46E6
:100A100080BD80B582B000AF786081F0D5F9034623
:100A200002221A604FF0FF3318460837BD4680BDDA
:100A300080B483B000AF78604FF0FF3318460C37B6
:100A4000BD465DF8047B704780B483B000AF78602A
:100A500039603B684FF400525A60002318460C3747
:100A6000BD465DF8047B704780B582B000AF78600A
:100A7000396081F0A9F903461F221A604FF0FF3355
:100A800018460837BD4680BD80B500AF81F09CF99F
:100A900003460B221A604FF0FF33184680BD80B525
:100AA00084B000AFF860B9607A6081F08DF90346D8
:100AB0000C221A604FF0FF3318461037BD4680BD38
:100AC00080B400AF00BFBD465DF8047B704780B4C2
:100AD00000AFFEE780B400AFFEE780B400AFFEE7F2
:100AE00080B400AFFEE780B400AF00BFBD465DF844
:100AF000047B704780B400AF00BFBD465DF8047B47
:100B0000704780B400AF00BFBD465DF8047B7047FE
:100B100080B500AF13F0E2FB00BF80BD80B500AF31
:100B2000024819F013FD00BF80BD00BFC0020024C1
:100B300080B586B000AF7860144A154BD31A7B613C
:100B40007B693B61134B1B68002B02D1114B124A8E
:100B50001A60104B1A687B6813443A699A4207D2AC
:100B600081F032F903460C221A604FF0FF3309E09E
:100B7000084B1B68FB60074B1A687B681344054AE7
:100B80001360FB6818461837BD4680BD000002247C
:100B900000040000BC0200245005002490B5ADF212
:100BA0005C5D02AF07F5AA64A4F24454206007F527
:100BB000AA60A0F5A960016007F5AA61A1F24C51F5
:100BC0000A6007F5AA62A2F5AA6213600023C7F8BB
:100BD0004C3516E007F5AA63A3F54F72D7F84C35EC
:100BE000134400221A7007F5AA63A3F23C52D7F807
:100BF0004C35134400221A70D7F84C350133C7F82E
:100C00004C35D7F84C35B3F5007FE3DB8D4B1B68D3
:100C1000C7F8483507F5AA63A3F5A96207F5AA63E3
:100C2000A3F2445107F2AC4000231268096824F093
:100C300091FC024607F5AA63A3F59E731A6007F5B7
:100C4000AA63A3F5AA6307F5AA62A2F24C5207F5BC
:100C5000057107F2AC401B68126824F08FFE024653
:100C600007F5AA63A3F59E735A60764B1B68C7F815
:100C70004435D7F84425D7F84835D31AC7F8403556
:100C800007F5AA63A3F59E731A6807F5AA63A3F58F
:100C90009E735968D7F8403500930B466A496B48F4
:100CA00081F052FA6948FFF7E5FC03469AB24FF427
:100CB0007A736649664818F0FFFC4FF4FA7013F037
:100CC0006DFB0023C7F84C3522E007F5AA63A3F5B6
:100CD0004F72D7F84C3513441B78C7F83C35D7F81A
:100CE0003C255C49594881F02FFA5848FFF7C2FC6F
:100CF00003469AB24FF47A735449554818F0DCFC15
:100D0000642013F04BFBD7F84C350133C7F84C3552
:100D1000D7F84C3507F5AA62A2F5AA6212689A4282
:100D2000D3D80A2081F0CEF9464B1B68C7F8483566
:100D300007F5AA63A3F5A96207F5AA63A3F24451D4
:100D400007F21C4001231268096824F003FC0246E4
:100D500007F5AA63A3F59E731A6007F5AA63A3F5C6
:100D6000AA6307F5057207F1140107F21C401B681E
:100D700024F031FE024607F5AA63A3F59E735A607C
:100D8000304B1B68C7F84435D7F84425D7F84835A9
:100D9000D31AC7F8403507F5AA63A3F59E731A68FE
:100DA00007F5AA63A3F59E735968D7F840350093F9
:100DB0000B462949254881F0C7F92448FFF75AFC1A
:100DC00003469AB24FF47A732049214818F074FC14
:100DD0004FF4FA7013F0E2FA0023C7F84C3522E022
:100DE00007F5AA63A3F23C52D7F84C3513441B789D
:100DF000C7F83C35D7F83C251649144881F0A4F9CA
:100E00001248FFF737FC03469AB24FF47A730F4942
:100E10000F4818F051FC642013F0C0FAD7F84C3595
:100E20000133C7F84C35D7F84C3507F5AA62A2F55F
:100E3000AA6212689A42D3D800BF00BF07F2545783
:100E4000BD4690BD041000E03C3C0808640300244B
:100E5000C0020024683C08086C3C080890B5ADF25C
:100E6000647D02AF07F5EB64A4F24C74206007F5D3
:100E7000EB60A0F5EA60016007F5EB61A1F2547147
:100E80000A6007F5EB62A2F5EB6213600023C7F876
:100E9000543716E007F5EB63A3F24452D7F8543702
:100EA000134400221A7007F5EB63A3F24472D7F8DB
:100EB0005437134400221A70D7F854370133C7F857
:100EC0005437D7F85437B3F5007FE3DB8C4B1B68FE
:100ED000C7F8503707F5EB63A3F5EA6207F5EB6354
:100EE000A3F24C7107F5B66000231268096824F07C
:100EF00048FB024607F5EB63A3F551731A6007F54B
:100F0000EB63A3F5EB6307F5EB62A2F2547207F50E
:100F1000057107F5B6601B68126824F092FD024661
:100F200007F5EB63A3F551735A60754B1B68C7F85F
:100F30004C37D7F84C27D7F85037D31AC7F848376B
:100F400007F5EB63A3F551731A6807F5EB63A3F597
:100F500051735968D7F8483700930B4669496A4876
:100F600081F0F2F86848FFF785FB03469AB24FF428
:100F70007A736549654818F09FFB4FF4FA7013F0D7
:100F80000DFA0023C7F8543722E007F5EB63A3F20C
:100F90004452D7F8543713441B78C7F84437D7F86E
:100FA00044275B49584881F0CFF85748FFF762FB68
:100FB00003469AB24FF47A735349544818F07CFBB5
:100FC000642013F0EBF9D7F854370133C7F85437DE
:100FD000D7F8543707F5EB62A2F5EB6212689A4234
:100FE000D3D8474B1B68C7F8503707F5EB63A3F519
:100FF000EA6207F5EB63A3F24C7107F21C40012390
:101000001268096824F0BDFA024607F5EB63A3F500
:1010100051731A6007F5EB63A3F5EB6307F50572EF
:1010200007F1140107F21C401B6824F04BFD024637
:1010300007F5EB63A3F551735A60314B1B68C7F892
:101040004C37D7F84C27D7F85037D31AC7F848375A
:1010500007F5EB63A3F551731A6807F5EB63A3F586
:1010600051735968D7F8483700930B4629492648E9
:1010700081F06AF82448FFF7FDFA03469AB24FF46C
:101080007A732149214818F017FB4FF4FA7013F0D6
:1010900085F90023C7F8543722E007F5EB63A3F284
:1010A0004472D7F8543713441B78C7F84437D7F83D
:1010B00044271749144881F047F81348FFF7DAFA34
:1010C00003469AB24FF47A730F49104818F0F4FAB5
:1010D000642013F063F9D7F854370133C7F8543755
:1010E000D7F8543707F5EB62A2F5EB6212689A4223
:1010F000D3D800BF00BF07F25C77BD4690BD00BFEC
:10110000041000E0983C080864030024C002002496
:10111000683C08086C3C080890B5ADF2AC6D02AFB5
:1011200007F5D464A4F29464206007F5D460A0F5B8
:10113000D360016007F5D461A1F29C610A6007F5F4
:10114000D462A2F5D46213600023C7F89C3616E07F
:1011500007F5D463A3F28C42D7F89C3613440022DF
:101160001A7007F5D463A3F28C62D7F89C36134447
:1011700000221A70D7F89C360133C7F89C36D7F88E
:101180009C36B3F5007FE3DB8C4B1B68C7F89836C1
:1011900007F5D463A3F29C6307F5D462A2F5D3628A
:1011A00007F5D461A1F2946107F254500024009431
:1011B0001B681268096822F091FF024607F5D463A4
:1011C000A3F523731A6007F5D463A3F5D46207F57A
:1011D000057107F25450D7F8B036126822F0C2FFFA
:1011E000024607F5D463A3F523735A60734B1B685B
:1011F000C7F89436D7F89426D7F89836D31AC7F894
:10120000903607F5D463A3F523731A6807F5D46302
:10121000A3F523735968D7F8903600930B466849B5
:10122000684880F091FF6748FFF724FA03469AB2B6
:101230004FF47A736349644818F03EFA4FF4FA7039
:1012400013F0ACF80023C7F89C3622E007F5D4630E
:10125000A3F28C42D7F89C3613441B78C7F88C361F
:10126000D7F88C265949574880F06EFF5548FFF74C
:1012700001FA03469AB24FF47A735249524818F071
:101280001BFA642013F08AF8D7F89C360133C7F8AC
:101290009C36D7F89C36D7F8B0269A42D6D8474B1A
:1012A0001B68C7F8983607F5D463A3F29C6307F56B
:1012B000D462A2F5D36207F5D461A1F2946107F27A
:1012C0001C40012400941B681268096822F006FF84
:1012D000024607F5D463A3F523731A6007F5057278
:1012E00007F1140107F21C40D7F8B03622F083FF53
:1012F000024607F5D463A3F523735A602F4B1B688E
:10130000C7F89436D7F89426D7F89836D31AC7F882
:10131000903607F5D463A3F523731A6807F5D463F1
:10132000A3F523735968D7F8903600930B462849E4
:10133000244880F009FF2348FFF79CF903469AB23E
:101340004FF47A731F49204818F0B6F94FF4FA7039
:1013500013F024F80023C7F89C3622E007F5D46385
:10136000A3F28C62D7F89C3613441B78C7F88C36EE
:10137000D7F88C261549134880F0E6FE1148FFF790
:1013800079F903469AB24FF47A730E490E4818F071
:1013900093F9642013F002F8D7F89C360133C7F8AC
:1013A0009C36D7F89C36D7F8B0269A42D6D800BFDC
:1013B00000BF07F2A467BD4690BD00BF041000E067
:1013C000983C080864030024C0020024683C080814
:1013D0006C3C08082DE9F04FD9B002AF07F5AC76A8
:1013E000A6F59E76306007F5AC70A0F5A0700160A0
:1013F00007F5AC71A1F5A2710A6007F5AC72A2F510
:10140000A47213606B467B6007F5AC73A3F5A473FD
:101410001E683346013BC7F850310023BE60FB60B5
:101420004FF000024FF00003F968CB00B96843EABF
:101430005173B968CA000023B2469B464FF00002C0
:101440004FF000034FEACB0343EA5A734FEACA0254
:10145000F31DDB08DB00ADEB030D02AB0033C7F877
:101460004C3107F5AC73A3F5A47319680B46013B27
:10147000C7F848310023884699464FF000024FF0E4
:1014800000034FEAC90343EA58734FEAC802002336
:101490000C461D464FF000024FF00003EB0043EAFC
:1014A0005473E200CB1DDB08DB00ADEB030D02AB98
:1014B0000033C7F84431884B1B68C7F8403107F543
:1014C000AC73A3F5A07207F5AC73A3F59E7307F197
:1014D0002C001268196867F087FA024607F5AC73AA
:1014E000A3F59A731A6007F5AC73A3F5A47307F517
:1014F000AC72A2F5A27207F12C001B681268D7F833
:101500004C1167F019FB024607F5AC73A3F59A730B
:101510005A60714B1B68C7F83C31D7F83C21D7F8AB
:101520004031D31AC7F8383107F5AC73A3F59A7375
:101530001A6807F5AC73A3F59A735968D7F8383170
:1015400000930B466549664880F0FEFD6448FFF74E
:1015500091F803469AB24FF47A736149614818F0E2
:10156000ABF84FF4FA7012F019FF0023C7F85431AA
:1015700020E0D7F84C21D7F8543113441B78C7F832
:101580003431D7F834215849554880F0DDFD5448AE
:10159000FFF770F803469AB24FF47A7350495148F6
:1015A00018F08AF8642012F0F9FED7F854310133AC
:1015B000C7F85431D7F8543107F5AC72A2F5A472CC
:1015C00012689A42D5D8444B1B68C7F8403107F5DA
:1015D000AC73A3F5A07207F5AC73A3F59E7307F186
:1015E0002C001268196867F0FFF9024607F5AC7322
:1015F000A3F59A731A6007F12C003346D7F84C21F3
:10160000D7F8441167F098FA024607F5AC73A3F5D2
:101610009A735A60304B1B68C7F83C31D7F83C21AD
:10162000D7F84031D31AC7F8383107F5AC73A3F5B2
:101630009A731A6807F5AC73A3F59A735968D7F8CB
:10164000383100930B462949254880F07DFD244818
:10165000FFF710F803469AB24FF47A7320492148F5
:1016600018F02AF84FF4FA7012F098FE0023C7F829
:10167000543120E0D7F84421D7F8543113441B7873
:10168000C7F83431D7F834211749154880F05CFD8C
:101690001348FEF7EFFF03469AB24FF47A731049EE
:1016A000104818F009F8642012F078FED7F8543189
:1016B0000133C7F85431D7F8543107F5AC72A2F5AD
:1016C000A47212689A42D5D8D7F804D000BF07F5A3
:1016D000AE77BD46BDE8F08F041000E0983C0808E6
:1016E00064030024C0020024683C08086C3C08081D
:1016F00090B5ADF2A46D02AF07F5D364A4F28C648B
:10170000206007F5D360A0F5D260016007F5D361D2
:10171000A1F294610A6007F5D362A2F5D362136067
:101720000023A7F8963616E0B7F9963607F5D36288
:10173000A2F284420021D154B7F9963607F5D3625C
:10174000A2F284620021D154B7F996369BB20133DC
:101750009BB2A7F89636B7F99636B3F5007FE3DB70
:101760008B4B1B68C7F8903607F5D363A3F29463DD
:1017700007F5D362A2F5D26207F5D361A1F28C61BD
:1017800007F5AA601B68126809687FF067F80246CF
:1017900007F5D363A3F521731A6007F5D363A3F5A7
:1017A000D36207F5057107F5AA60D7F8A836126865
:1017B0007FF009F9024607F5D363A3F521735A6058
:1017C000734B1B68C7F88C36D7F88C26D7F8903641
:1017D000D31AC7F8883607F5D363A3F521731A68BF
:1017E00007F5D363A3F521735968D7F888360093BA
:1017F0000B466849684880F0A7FC6748FEF73AFF47
:1018000003469AB24FF47A736349644817F054FF61
:101810004FF4FA7012F0C2FD0023A7F8963623E0C9
:10182000B7F9963607F5D362A2F28442D35CC7F8C3
:101830008436D7F884265A49574880F085FC5648A4
:10184000FEF718FF03469AB24FF47A735249534891
:1018500017F032FF642012F0A1FDB7F996369BB263
:1018600001339BB2A7F89636B7F99636D7F8A82673
:101870009A42D5D8464B1B68C7F8903607F5D36314
:10188000A3F2946307F5D362A2F5D26207F5D361A0
:10189000A1F28C6107F21C401B68126809687EF097
:1018A000DDFF024607F5D363A3F521731A6007F540
:1018B000057207F1140107F21C40D7F8A8367FF033
:1018C000C6F8024607F5D363A3F521735A60304B7F
:1018D0001B68C7F88C36D7F88C26D7F89036D31A01
:1018E000C7F8883607F5D363A3F521731A6807F59F
:1018F000D363A3F521735968D7F8883600930B4654
:101900002849254880F020FC2348FEF7B3FE034613
:101910009AB24FF47A732049204817F0CDFE4FF465
:10192000FA7012F03BFD0023A7F8963623E0B7F9D2
:10193000963607F5D362A2F28462D35CC7F8843688
:10194000D7F884261649144880F0FEFB1248FEF7AB
:1019500091FE03469AB24FF47A730F490F4817F07D
:10196000ABFE642012F01AFDB7F996369BB2013334
:101970009BB2A7F89636B7F99636D7F8A8269A42BA
:10198000D5D800BF00BF07F29C67BD4690BD00BF21
:10199000041000E0983C080864030024C0020024FE
:1019A000683C08086C3C08082DE9F04FA7B002AF6E
:1019B00078613961FA60BB606B461E46D7F8B81093
:1019C0000B46013BC7F88830002339607B604FF03D
:1019D00000024FF000037868C300386843EA507390
:1019E0003868C20000238A469B464FF000024FF041
:1019F00000034FEACB0343EA5A734FEACA02CB1DF6
:101A0000DB08DB00ADEB030D02AB0033C7F884301D
:101A1000D7F8B8100B46013BC7F880300023884642
:101A200099464FF000024FF000034FEAC90343EA22
:101A300058734FEAC80200230C461D464FF00002BF
:101A40004FF00003EB0043EA5473E200CB1DDB08C8
:101A5000DB00ADEB030D02AB0033FB676D4B1B6886
:101A6000BB6707F128033A69796918464DF0D2FE41
:101A70000346FB6107F128030022F96818464DF080
:101A80009FFE03463B6207F12800D7F8B830BA68DA
:101A9000D7F884104EF0DAF903467B625D4B1B6881
:101AA0007B677A6FBB6FD31A3B67F969386A7B6AC9
:101AB0003A6F0192009303460A465749574880F00F
:101AC00043FB5648FEF7D6FD03469AB24FF47A73AD
:101AD0005249534817F0F0FD4FF4FA7012F05EFCD3
:101AE0000023C7F88C301EE0D7F88420D7F88C305C
:101AF00013441B78FB66FA6E4A49484880F024FB81
:101B00004648FEF7B7FD03469AB24FF47A7343494D
:101B1000434817F0D1FD642012F040FCD7F88C3018
:101B20000133C7F88C30D7F88C30D7F8B8209A42F8
:101B3000DAD8384B1B68BB6707F128033A69796923
:101B400018464DF067FE0346FB6107F128030022AB
:101B5000F96818464DF034FE03463B6207F1280051
:101B6000D7F8B830D7F88420F96F4EF06FF90346F4
:101B70007B62284B1B687B677A6FBB6FD31A3B670E
:101B8000F969386A7B6A3A6F0192009303460A4604
:101B90002149224880F0D8FA2048FEF76BFD034621
:101BA0009AB24FF47A731D491D4817F085FD4FF422
:101BB000FA7012F0F3FB0023C7F88C301DE0FA6FC7
:101BC000D7F88C3013441B78FB66FA6E154913481E
:101BD00080F0BAFA1148FEF74DFD03469AB24FF471
:101BE0007A730E490E4817F067FD642012F0D6FB99
:101BF000D7F88C300133C7F88C30D7F88C30D7F851
:101C0000B8209A42DBD8B54600BF9437BD46BDE840
:101C1000F08F00BF041000E0C43C080864030024F7
:101C2000C0020024683C080880B584B002AF00F010
:101C3000A9F94FF6FF737B6000BF7E4B1B6803F46E
:101C40000043002B04D07B685A1E7A60002BF4DC22
:101C50007B68002B01DA00F003FA12F061FA66F0FB
:101C600023FA00F011F9012000F0E6FB724B734AF1
:101C70001A60714B724A5A606F4B00229A606E4B29
:101C80000022DA606C4B00221A616B4B00229A61D1
:101C9000694B0C225A61684B0022DA61664817F0E2
:101CA00037FB0346002B01D000F0DAF94FF000714A
:101CB000614805F092FB604805F0DDFA5E4805F0EA
:101CC00096FA5D4B1B681A685B4B1B6842F000423A
:101CD0001A60594B1B689A68574B1B6842F4800284
:101CE0009A60584B1B789AB24FF47A73564952480F
:101CF00017F0E2FC0346002B01D000F0B1F9534B82
:101D00001B68524A43F080731360514B00221A60E3
:101D1000504B1B684F4A43F0010313604E4B1B7836
:101D20009AB24FF47A734D49434817F0C5FC034605
:101D3000002B01D000F094F90A2249493E4817F0DF
:101D4000A9FE00BF3C4819F095F80346202BF9D1B5
:101D5000444B19684FF47A730A22374817F0ACFCE9
:101D60000346002B01D000F07BF9012000F066FC57
:101D70004FF4FA7012F012FB3B493C4880F0E4F952
:101D80003A48FEF777FC03469AB24FF47A73374924
:101D9000294817F091FC4FF4FA7012F0FFFA102363
:101DA0000093334B334A10213348FFF7FDFD33498D
:101DB0002E4880F0C9F92D48FEF75CFC03469AB224
:101DC0004FF47A7329491C4817F076FC4FF4FA70E7
:101DD00012F0E4FA2A49254880F0B6F92348FEF7C4
:101DE00049FC03469AB24FF47A732049124817F01F
:101DF00063FC4FF4FA7012F0D1FA102300931C4BDD
:101E00001C4A20211C48FFF7CFFD1E49174880F0CF
:101E10009BF91648FEF72EFC03469AB24FF47A73EC
:101E20001249054817F048FC4FF4FA7012F0B6FA60
:101E300074E700BF00440258C0020024004800407C
:101E400090C301003C00002408000024FCED00E0E9
:101E5000041000E0001000E06C00002440000024AA
:101E60005003002470000024F43C0808640300249C
:101E7000A0000024C4010024B0000024143D080880
:101E8000343D0808543D080880B59EB000AF0023DB
:101E900087F87730042009F0F5FE00237B60374B8C
:101EA000DB6A364A23F00103D362344BDB6A03F06A
:101EB00001037B60324B9B69314A43F44043936199
:101EC0002F4B9B6903F440437B607B6800BF2C4B26
:101ED0009B6903F40053B3F5005FF8D10123BB60A5
:101EE0004FF4A023FB6000237B6100237B6202236D
:101EF000FB6202233B6304237B634FF4C873BB6321
:101F000000233B650223FB6302237B6404233B64C1
:101F10000023FB640423BB6407F10803184606F0A2
:101F2000FBFF034687F8773097F87730002B01D016
:101F300000F096F83F237B650323BB650023FB6518
:101F400008233B6640237B664023BB664FF48063D7
:101F5000FB6640233B6707F154030421184607F052
:101F6000E9FB034687F8773097F87730002B01D0EC
:101F700000F076F800BF7837BD4680BD00040058F9
:101F80000048025880B485B000AF344B5B6903F45D
:101F90000033002B1BD1BFF34F8F00BFBFF36F8FF8
:101FA00000BF2E4B0022C3F85022BFF34F8F00BF5B
:101FB000BFF36F8F00BF294B5B69284A43F400339E
:101FC0005361BFF34F8F00BFBFF36F8F00E000BFBF
:101FD000224B5B6903F48033002B38D11F4B002266
:101FE000C3F88420BFF34F8F00BF1C4BD3F8803061
:101FF000FB60FB685B0BC3F30E03BB60FB68DB0895
:10200000C3F309037B60BB685A0143F6E0731340D6
:102010007A68920711491343C1F860327B685A1EEF
:102020007A60002BEFD1BB685A1EBA60002BE5D155
:10203000BFF34F8F00BF094B5B69084A43F48033FD
:102040005361BFF34F8F00BFBFF36F8F00E000BF3E
:1020500000BF1437BD465DF8047B704700ED00E01B
:1020600080B500AF022000F095FAFEE780B400AF23
:10207000314BD3F88830304A43F47003C2F88830CB
:102080002D4B1B692C4A43F0100313612B4B1B682B
:102090002A4A43F001031360284B00221A61274BA0
:1020A0001A682649264B13400B60244B00229A6184
:1020B000224B0022DA61214B00221A621F4B0022C0
:1020C0009A621E4B0022DA621C4B00221A631B4BE1
:1020D00000225A63194B00229A63184B0022DA63DC
:1020E000164B00221A64154B00225A64134B1B68CE
:1020F000124A23F480231360104B00221A66114BFE
:102100005B6A104A43F4804353620F4B1A680F4BCB
:102110001340B3F1005F02D20D4B01221A600D4B48
:1021200043F2D2021A60044B4FF000629A6000BF83
:10213000BD465DF8047B704700ED00E000440258A6
:102140007FEDF6EAC00000580010005C0000FFFFC1
:10215000088100510040005280B48BB000AFA74B03
:102160001B6903F03803182B00F2228101A252F8F8
:1021700023F000BFD9210008B1230008B1230008D3
:10218000B1230008B1230008B1230008B1230008DF
:10219000B1230008ED210008B1230008B123000895
:1021A000B1230008B1230008B1230008B1230008BF
:1021B000B1230008F3210008B1230008B12300086F
:1021C000B1230008B1230008B1230008B12300089F
:1021D000B1230008F9210008884B1B68DB0803F0D5
:1021E0000303874A22FA03F37B62E4E0854B7B62B8
:1021F000E1E0854B7B62DEE0804B9B6A03F00303EA
:10220000FB617E4B9B6A1B0903F03F03BB617B4B69
:10221000DB6A03F001037B61784B5B6BDB08C3F384
:102220000C037A6902FB03F307EE903AF8EE677A43
:10223000C7ED047ABB69002B00F0B780FB69022B65
:1022400059D0FB69022B78D8FB69002B03D0FB69BE
:10225000012B2ED071E0694B1B68DB0803F00303F0
:10226000674A22FA03F3FB60FB6807EE903AF8EE48
:10227000676ABB6907EE903AF8EE677A86EEA77A4E
:102280005E4B1B6BC3F3080307EE903AF8EE676AE8
:1022900097ED046ADFED5D5AC6EE257A76EEA77AF1
:1022A000F7EE006A77EEA67A67EE277AC7ED087A2E
:1022B00065E0BB6907EE903AF8EE677ADFED546AA5
:1022C00086EEA77A4D4B1B6BC3F3080307EE903ADB
:1022D000F8EE676A97ED046ADFED4C5AC6EE257A90
:1022E00076EEA77AF7EE006A77EEA67A67EE277A9F
:1022F000C7ED087A43E0BB6907EE903AF8EE677ADB
:10230000DFED446A86EEA77A3C4B1B6BC3F30803F0
:1023100007EE903AF8EE676A97ED046ADFED3B5AF4
:10232000C6EE257A76EEA77AF7EE006A77EEA67A01
:1023300067EE277AC7ED087A21E0BB6907EE903A8D
:10234000F8EE677ADFED326A86EEA77A2B4B1B6BCD
:10235000C3F3080307EE903AF8EE676A97ED046A54
:10236000DFED2A5AC6EE257A76EEA77AF7EE006AF6
:1023700077EEA67A67EE277AC7ED087A00BF1F4B83
:102380001B6B5B0A03F07F030133BB60BB6807EE86
:10239000903AB8EE677AD7ED086AC6EE877AFCEE17
:1023A000E77A17EE903A7B6205E000237B6202E059
:1023B000144B7B6200BF114B9B691B0A03F00F0398
:1023C000154AD35C7B607A6A7B6822FA03F37B62EE
:1023D0000A4B9B6903F00F030F4AD35C03F01F0302
:1023E0007A6A22FA03F30D4A13600D4A7B6A13607E
:1023F00000BF2C37BD465DF8047B7047004402588F
:102400000090D00300093D0000127A000000004651
:102410000024744A0024F44AB05B0808EC0100244C
:10242000E801002480B400AF024B1846BD465DF8B9
:10243000047B70470000030180B58CB000AF0346F9
:10244000FB710023FB62FB79002B09D0FB79012B88
:1024500006D0FB79022B03D06FF00103FB6255E03D
:10246000FB79002B0FD12C4BD3F8E0302A4A43F0F4
:102470000203C2F8E030284BD3F8E03003F0020347
:102480007B617B6921E0FB79012B0FD1224BD3F8D3
:10249000E030214A43F01003C2F8E0301E4BD3F87D
:1024A000E03003F010033B613B690EE01A4BD3F8B8
:1024B000E030194A43F00203C2F8E030164BD3F87B
:1024C000E03003F00203FB60FB68FB79134A32F84B
:1024D0001330BB610123FB6100233B6203237B625A
:1024E000FB790F4A52F8233007F1180211461846BB
:1024F00010F0A6FEFB790A4A52F82300FB79074A3E
:1025000032F813300022194611F06CF9FB6A1846B4
:102510003037BD4680BD00BF00440258C05B08088C
:10252000F401002480B588B000AF0346FB7100239E
:10253000FB61FB79002B09D0FB79012B06D0FB79DD
:10254000022B03D06FF00103FB6119E0FB790F4A06
:1025500052F82300FB790E4A32F813300022194654
:1025600011F040F9FB790A4A32F81330BB60FB796D
:10257000064A52F82330BA681146184611F010F88E
:10258000FB6918462037BD4680BD00BFF40100241A
:10259000C05B080880B584B000AF0346FB71002320
:1025A000FB60FB79002B09D0FB79012B06D0FB796E
:1025B000022B03D06FF00103FB600BE0FB79084AAC
:1025C00052F82300FB79074A32F8133001221946EA
:1025D00011F008F9FB6818461037BD4680BD00BFF2
:1025E000F4010024C05B080880B584B000AF034646
:1025F000FB710023FB60FB79002B09D0FB79012BD9
:1026000006D0FB79022B03D06FF00103FB600BE0D7
:10261000FB79084A52F82300FB79074A32F8133055
:102620000022194611F0DEF8FB6818461037BD4647
:1026300080BD00BFF4010024C05B080880B584B0F1
:1026400000AF0346FB710023FB60FB79002B09D030
:10265000FB79012B06D0FB79022B03D06FF001032D
:10266000FB600BE0FB79084A52F82320FB7907490D
:1026700031F813301946104611F0CDF8FB681846B2
:102680001037BD4680BD00BFF4010024C05B0808C0
:1026900080B584B000AF0346FB71FB79002B09D0F5
:1026A000FB79012B06D0FB79022B03D06FF00103DD
:1026B000FB600DE0FB79094A52F82320FB790849B9
:1026C00031F813301946104611F074F80346FB60D8
:1026D000FB6818461037BD4680BD00BFF4010024DA
:1026E000C05B080880B588B000AF03460A46FB719E
:1026F0001346BB712D4BD3F8E0302C4A43F0040352
:10270000C2F8E030294BD3F8E03003F00403BB609B
:10271000BB684FF40053FB6002237B610223BB6163
:10272000BB79002B0CD100233B61FB79204A52F886
:10273000233007F10C021146184610F081FD30E0FD
:102740001C4B3B61FB791A4A52F8233007F10C020B
:102750001146184610F074FDFB79DB00164A1A4446
:10276000FB79164951F823301946104606F0D3F983
:10277000FB79DB00104A9818FB79114A52F8233094
:102780001A46002106F0A8F92820FB790D4A52F8D4
:1027900023300022194601F026FF2823184601F0B5
:1027A0003CFF002318462037BD4680BD0044025838
:1027B000000200240000111150040024D05B08081E
:1027C000040200240802002480B588B000AF03464C
:1027D000FB714FF40053FB602823184601F02BFFD8
:1027E000FB79064A52F82330FA681146184610F071
:1027F000D7FE002318462037BD4680BD00020024C6
:1028000080B582B000AF0346FB71FB79064A52F8EF
:1028100023304FF400521146184610F0CBFF034608
:1028200018460837BD4680BD0002002480B582B03E
:1028300000AF0346FB71FB79DB00044A13441846E2
:1028400006F07EF900BF0837BD4680BD5004002465
:1028500080B483B000AF0346FB7100BF0C37BD46A8
:102860005DF8047B7047000080B584B000AF03467C
:102870003960FB710023FB60FB79002B03D06FF004
:102880000103FB601AE0FA791346DB0013441B01D5
:102890000D4A1344184600F091F8FA791346DB000C
:1028A00013441B01084A13443968184600F04CF8D9
:1028B0000346002B02D06FF00303FB60FB68184651
:1028C0001037BD4680BD00BF5804002480B584B0D9
:1028D00000AF0346FB710023FB60FB79002B03D0A4
:1028E0006FF00103FB6025E0FB79FA79144951F898
:1028F000231014481346DB0013441B0103441960E2
:10290000FA791346DB0013441B010E4A13441846A0
:1029100000F0ACF8FA791346DB0013441B01094AB6
:102920001344184616F078FE0346002B02D06FF0D1
:102930000303FB60FB6818461037BD4680BD00BF2F
:10294000F00100245804002480B582B000AF786004
:102950003960154B1A687B681A603B681A687B6897
:102960005A607B680C225A613B685B891A467B6817
:102970001A613B685A687B689A603B681B891A46F3
:102980007B68DA603B689B891A467B689A617B6842
:102990004FF40042DA61786816F0BAFC0346184634
:1029A0000837BD4680BD00BFF001002480B500AFF0
:1029B0000020FFF74DFF00BF80BD000080B58AB04A
:1029C00000AF7860274BD3F8E030264A43F0080385
:1029D000C2F8E030234BD3F8E03003F008033B614A
:1029E0003B69204BD3F8E0301E4A43F00803C2F89D
:1029F000E0301C4BD3F8E03003F00803FB60FB68C9
:102A0000184BD3F8E830174A43F48023C2F8E83073
:102A1000144BD3F8E83003F48023BB60BB684FF459
:102A200080737B610223BB6102233B620123FB6154
:102A300007237B6207F1140319460B4810F000FCD2
:102A40004FF400737B610223BB6107237B6207F1B4
:102A500014031946044810F0F3FB00BF2837BD46A5
:102A600080BD00BF00440258000C025880B588B0F9
:102A700000AF78604FF48073FB60FB6819460B4829
:102A800010F08EFD4FF40073FB60FB681946074899
:102A900010F086FD064BD3F8E830054A23F4802376
:102AA000C2F8E83000BF2037BD4680BD000C025898
:102AB0000044025880B483B000AF78607B681B6923
:102AC00003F00103012B01D1012300E0002318468C
:102AD0000C37BD465DF8047B704780B483B000AF0F
:102AE00078607B685B6843F008027B685A6000BFCF
:102AF0000C37BD465DF8047B704780B483B000AFEF
:102B000078607B681B6803F00803082B01D1012360
:102B100000E0002318460C37BD465DF8047B704783
:102B200080B483B000AF78607B685B6843F01002CC
:102B30007B685A6000BF0C37BD465DF8047B704768
:102B400080B483B000AF78607B681B6803F010032B
:102B5000102B01D1012300E0002318460C37BD469D
:102B60005DF8047B7047000080B483B000AF7860EC
:102B7000064BD3F8902005497B681343C1F8903089
:102B800000BF0C37BD465DF8047B70470044025817
:102B900080B483B000AF7860074BD3F890207B6897
:102BA000DB4305491340C1F8903000BF0C37BD46E8
:102BB0005DF8047B704700BF0044025880B483B0C6
:102BC00000AF7860064BD3F89C2005497B6813431F
:102BD000C1F89C3000BF0C37BD465DF8047B7047E0
:102BE0000044025880B483B000AF7860074BD3F83C
:102BF0009C207B68DB4305491340C1F89C3000BF33
:102C00000C37BD465DF8047B704700BF0044025896
:102C100080B485B000AF78607B68DAB2104B1344A3
:102C2000FB60FB681A687B68190E7B681B0A03F05F
:102C30001F0301FA03F3DB431A407B681B0CD9B274
:102C40007B681B0A03F01F0301FA03F31A43FB68B6
:102C50001A6000BF1437BD465DF8047B704700BFA3
:102C60004C44025880B582B000AF78607868FFF7B6
:102C7000CFFF00BF0837BD4680BD000080B485B0DF
:102C800000AF78607B68DAB20E4B1344FB60FB68E0
:102C90001A687B68190E7B681B0A03F01F0301FA90
:102CA00003F31A407B681B0A03F01F0322FA03F3A5
:102CB0001A047B68134318461437BD465DF8047B3D
:102CC000704700BF4C44025880B582B000AF7860B6
:102CD0007868FFF7D3FF034618460837BD4680BD26
:102CE00080B584B000AF78600023FB737B68234A13
:102CF000934208D14FF40070FFF736FF4FF4007095
:102D0000FFF746FF35E07B681D4A934208D14FF438
:102D10000070FFF753FF4FF40070FFF763FF28E0E8
:102D20007B68184A934208D14FF48060FFF746FF52
:102D30004FF48060FFF756FF1BE07B68124A934216
:102D400008D14FF40060FFF739FF4FF40060FFF740
:102D500049FF0EE07B680D4A934208D14FF4805042
:102D6000FFF72CFF4FF48050FFF73CFF01E00123F9
:102D7000FB73FB7B18461037BD4680BD0024004026
:102D80000024005800280058002C0058003000583B
:102D900080B483B000AF78607B6800221A607B68E3
:102DA00000225A607B6800229A607B680022DA6009
:102DB00000BF0C37BD465DF8047B704780B584B01A
:102DC00000AF786039600023FB737868FFF772FE0C
:102DD0000346012B02D10123FB7311E07B68DA6803
:102DE0000A4B13403A6811683A68526811433A68CE
:102DF000926811433A68D2680A431A437B68DA60E2
:102E0000FB7B18461037BD4680BD00BFFEF1CFFFEB
:102E100080B590B000AF78600023FB6372B600BF4E
:102E20007B68604A93421FD05E4A934221D85E4A33
:102E3000934219D05C4A93421BD85C4A934213D008
:102E40005A4A934215D85A4A934203D0594A934258
:102E500005D00EE05848FFF737FFF8630AE05748FF
:102E6000FFF732FFF86305E05548FFF72DFFF863E1
:102E700000E000BF7B689B68BB637B68DB687B63AB
:102E80007B685B693B637B689B69FB627B685B6A11
:102E9000BB627868FFF724FF07F10C03184602F0C5
:102EA0009BFC3B6B002B02D1FB6A002B64D07B6840
:102EB0003C4A93421DD03B4A93421ED83A4A934221
:102EC00017D0394A934218D8384A934211D0374A1A
:102ED000934212D8364A934203D0364A934204D0E2
:102EE0000BE03548FFF7BEFE08E03448FFF7BAFEB6
:102EF00004E03348FFF7B6FE00E000BF3B6B002B59
:102F000017D07B681B6943F001027B681A617B68FC
:102F10003A6B5A61FB68013BFB607868FFF7EDFD97
:102F20000346012B02D0FB68002BF3D17868FFF732
:102F3000D4FDFB6A002B1CD07B681B6943F00102A7
:102F40007B681A617B68FA6A9A6107F10C0318467C
:102F500002F042FCFB68013BFB607868FFF7F0FD84
:102F60000346012B02D0FB68002BF3D17868FFF7F2
:102F7000D7FDF86BFFF776FE7B681B6923F0010233
:102F80007B681A617B68BA6B9A607B687A6BDA60DF
:102F90007B68BA6A5A6262B600BF00BF4037BD465E
:102FA00080BD00BF00300058002C00580028005899
:102FB0000024004000240058081C00070C0A0007E9
:102FC0000C0D000780B483B000AF786039607B6877
:102FD0001A683B6803F01003012101FA03F31A4059
:102FE0003B6803F01003012101FA03F39A4201D177
:102FF000012300E0002318460C37BD465DF8047B32
:103000007047000080B483B000AF7860064BD3F8FF
:10301000902005497B681343C1F8903000BF0C37FE
:10302000BD465DF8047B70470044025880B483B00D
:1030300000AF7860074BD3F890207B68DB430549ED
:103040001340C1F8903000BF0C37BD465DF8047BDB
:10305000704700BF0044025880B582B000AF78606E
:103060007B68084A934207D14FF00050FFF7CAFF30
:103070004FF00050FFF7DAFF002318460837BD462F
:1030800080BD00BF0074004080B586B000AFF8601E
:10309000B9607A600023FB75B968F868FFF792FFA2
:1030A0000346002B4ED17B685B68002B1BD0FB686E
:1030B0001A68BB6803F0100340F6FC7101FA03F3D1
:1030C000DB431A407B6819687B685B6819437B683F
:1030D0009B681943BB6803F0100301FA03F31A431A
:1030E000FB681A6013E0FB681A68BB6803F0100302
:1030F000FC2101FA03F3DB431A407B681968BB68C3
:1031000003F0100301FA03F31A43FB681A60FB682B
:10311000DA6BBB6803F01003072101FA03F3DB430A
:103120001A407B68D9687B681B6919437B685B69B7
:103130001943BB6803F0100301FA03F31A43FB6859
:10314000DA6301E00123FB75FB7D18461837BD46A5
:1031500080BD80B483B000AF78607B6800221A60C5
:103160007B6800225A607B6800229A607B6800229C
:10317000DA607B6800221A617B6800225A6100BF16
:103180000C37BD465DF8047B7047000080B584B005
:1031900000AF786039600023FB735E4B1B7D012B11
:1031A00001D10223B2E05B4B01221A75594B002278
:1031B0009A617B685B6803F00103002B09D0012151
:1031C0004CF250301BF066F90346002B01D001236E
:1031D000FB737B685B6803F00203002B09D00221BC
:1031E0004CF250301BF056F90346002B01D001235E
:1031F000FB73FB7B002B40F085807B681B68012BF9
:1032000036D17B681A697B685B681946104600F006
:103210009BFB7B685B6803F00103002B0FD001214F
:103220004CF250301BF036F90346002B01D001233D
:10323000FB73394BDB68384A23F00803D3607B68A3
:103240005B6803F00203002B5CD002214CF250308B
:103250001BF020F90346002B01D00123FB732E4BFA
:10326000D3F80C312C4A23F00803C2F80C3149E0A2
:103270003B684FF0FF321A607B689B68BB6039E0A7
:103280007B6859687B681B691A46B86800F0C6FB02
:103290007B685B6803F00103002B0CD001214CF22A
:1032A00050301BF0F7F80346FB731B4BDA681A49E2
:1032B0001A4B1340CB607B685B6803F00203002B62
:1032C0000ED002214CF250301BF0E4F80346FB73A1
:1032D000114BD3F80C211049104B1340C1F80C319D
:1032E000FB7B002B03D03B68BA681A600AE0BB681E
:1032F0000133BB607B68DA687B689B681344BA68FB
:103300009A42BDD3034B00221A75FB7B1846103737
:10331000BD4680BDEC04002400200052FBF8FFFFF6
:1033200080B584B000AF78600023FB73484B1B7DF1
:10333000012B01D1022387E0454B01221A75444B32
:1033400000229A617B685B6803F00103002B09D0BF
:1033500001214CF250301BF09DF80346002B01D0A8
:103360000123FB737B685B6803F00203002B09D029
:1033700002214CF250301BF08DF80346002B01D097
:103380000123FB73FB7B002B03D0314B00221A750A
:1033900059E07B685B6803F00103002B05D02D4BDF
:1033A000DB682C4A43F4DE03D3607B685B6803F080
:1033B0000203002B07D0274BD3F80C31254A43F4E6
:1033C000DE03C2F80C317B681B68012B1BD17B68C4
:1033D0005B68012B03D11E4B02221A700AE07B6846
:1033E0005B68022B03D11A4B05221A7002E0184BBE
:1033F00007221A707B681A697B685B681946104659
:1034000000F0A2FA1FE07B685B68012B03D1104B30
:1034100001221A7002E00E4B04221A707B68DB68EE
:103420000B4A53607B689B68094AD3607B681B69C1
:10343000074A93607B6898687B6859687B681B695A
:103440001A4600F0EBFAFB7B18461037BD4680BDEC
:10345000EC0400240020005280B584B000AF7860F6
:10346000554B1B7D012B01D10223A1E0524B0122C0
:103470001A75514B00229A6101214CF250301BF019
:1034800009F80346002B02D00123FB730CE0022154
:103490004CF250301AF0FEFF0346002B02D00123FD
:1034A000FB7301E00023FB73FB7B002B7CD17B686B
:1034B0001B6803F00103002B14D07B685B68012BB1
:1034C00008D17B689A687B68DB691946104600F072
:1034D000E3FA07E07B689A687B68DB691946104667
:1034E00000F004FB7B681B6803F00203002B04D090
:1034F0007B68DB68184600F04FFB7B681B6803F0B5
:103500000403002B07D07B685A697B689B691946C6
:10351000104600F071FB7B681B6803F00803002B6A
:1035200009D07B68186A7B68596A7B689A6A7B68ED
:10353000DB6900F063FC7B681B6803F01003002B61
:1035400004D07B681B69184600F0D0FC7B681B68C0
:1035500003F04003002B08D07B68D86A7B68196BA6
:103560007B685B6B1A4600F0E3FC7B681B6803F02A
:103570008003002B08D07B68986B7B68D96B7B68D5
:103580001B6C1A4600F01AFD7B681B6803F02003D1
:10359000002B09D07B68586C7B68996C7B68DA6C6F
:1035A0007B68DB6900F050FD034B00221A75FB7B42
:1035B00018461037BD4680BDEC04002480B582B0AB
:1035C00000AF78607B6816221A6000F0F9FA0246B4
:1035D0007B68DA6000F0FCFB02467B689A6100F0D1
:1035E00099FC02467B681A617B68DB69012B03D07A
:1035F0007B68DB69022B29D17B681B6843F02902B9
:103600007B681A607B68181D7B6803F108017B6882
:10361000DB691A4600F092FA7B6803F120007B68B0
:1036200003F124017B6803F128027B68DB6900F069
:103630001BFC7B6803F144007B6803F148017B6855
:1036400003F14C027B68DB6900F038FD7B6803F115
:1036500030027B6834331946104600F093FC7B68D7
:103660001B6843F0C0027B681A607B6803F13C0270
:103670007B6840331946104600F0CAFC00BF08378B
:10368000BD4680BD80B400AF0C4BDB6803F0010386
:10369000002B0DD0094B0A4A5A60084B094A5A6060
:1036A000064BDB6803F00103002B01D0012300E08F
:1036B00000231846BD465DF8047B70470020005289
:1036C00023016745AB89EFCD80B400AF054BDB68C4
:1036D000044A43F00103D36000231846BD465DF859
:1036E000047B70470020005280B400AF0E4BD3F82B
:1036F0000C3103F00103002B10D00B4B0B4AC3F825
:103700000421094B0A4AC3F80421074BD3F80C31B2
:1037100003F00103002B01D0012300E00023184631
:10372000BD465DF8047B70470020005223016745C9
:10373000AB89EFCD80B400AF064BD3F80C31054A0E
:1037400043F00103C2F80C3100231846BD465DF872
:10375000047B70470020005280B584B000AF7860D1
:1037600039604CF250301AF02BFF0346FB73FB7BA1
:10377000002B40F0E0807B689B68012B66D1704B8A
:10378000DB686F4A43F40043D3606D4B5B696C4A5E
:1037900043F0C05353616A4B1A6D7B6859687B686C
:1037A0001B680B431343664A43F4003313657B687D
:1037B0001B68B3F5807F19D1614B1B6D604A43F4E0
:1037C000806313657B68DB68BB6006E00121B86835
:1037D00000F0B6FCBB680133BB607B681A697B688C
:1037E000DB681344BA689A42F0D313E07B681B6825
:1037F000544A934206D1524B1B6D514A43F4800305
:10380000136507E07B6858697B689B69012219464C
:1038100000F0C8FC4A4B1B6D494A43F480331365E2
:1038200001214CF250301AF007FF0346FB73444B62
:10383000DA6D3B681A60424BDB68414A23F400436F
:10384000D3603F4B4FF0C0525A6174E03C4BD3F809
:103850000C313B4A43F40043C2F80C31384BD3F8E7
:103860001431374A43F0C053C2F81431344BD3F803
:1038700050217B6859687B681B680B431343304AAF
:1038800043F40033C2F850317B681B68B3F5807F86
:103890001BD12B4BD3F85031294A43F48063C2F833
:1038A00050317B68DB68BB6006E00221B86800F03D
:1038B00047FCBB680133BB607B681A697B68DB68C7
:1038C0001344BA689A42F0D315E07B681B681D4A1E
:1038D000934208D11A4BD3F85031194A43F480036C
:1038E000C2F8503107E07B6858697B689B69022207
:1038F000194600F057FC124BD3F85031104A43F4EC
:103900008033C2F8503102214CF250301AF094FE4C
:103910000346FB730A4BDA6D3B681A60084BD3F819
:103920000C31074A23F40043C2F80C31044B4FF02A
:10393000C052C3F81421FB7B18461037BD4680BD2A
:10394000002000520001400080B483B000AF7860D6
:1039500039603B6803F00303032B22D12E4BDB6855
:103960002D4A23F03003D3602B4BD3F80C312A4A75
:1039700023F03003C2F80C31274BDA6826497B6804
:103980001343CB60244BD3F80C2123497B681343AA
:10399000C1F80C31204B9B691F4A43F0100393611F
:1039A00033E03B6803F00103002B11D01A4BDB68B6
:1039B000194A23F03003D360174BDA6816497B6845
:1039C0001343CB60144BDB68134A43F08803D36086
:1039D0003B6803F00203002B17D00F4BD3F80C31D8
:1039E0000D4A23F03003C2F80C310B4BD3F80C21F5
:1039F00009497B681343C1F80C31074BD3F80C31EC
:103A0000054A43F08803C2F80C3100BF0C37BD46AD
:103A10005DF8047B704700BF0020005280B485B081
:103A200000AFF860B9607A60BB6803F00103002B57
:103A300010D0184BDB68174A23F4E663D360154BAC
:103A4000DA68FB6819027B680B431343114A43F0A1
:103A50008403D360BB6803F00203002B14D00D4B2A
:103A6000D3F80C310B4A23F4E663C2F80C31094B4E
:103A7000D3F80C21FB6819027B680B431343054AFA
:103A800043F08403C2F80C3100BF1437BD465DF823
:103A9000047B70470020005280B483B000AF786090
:103AA00039603B6803F00103002B07D00E4BDA6B43
:103AB0007B68DBB2DB430C491340CB633B6803F00C
:103AC0000203002B09D0084BD3F83C217B68DBB202
:103AD000DB4305491340C1F83C3100BF0C37BD46FC
:103AE0005DF8047B704700BF0020005280B483B0B3
:103AF00000AF786039603B6803F00103002B06D00B
:103B00000D4BDA6B7B68DBB20B491343CB633B682D
:103B100003F00203002B08D0074BD3F83C217B684D
:103B2000DBB205491343C1F83C3100BF0C37BD4639
:103B30005DF8047B704700BF0020005280B487B05E
:103B400000AFF860B9607A6000237B617B68012B6D
:103B500002D1104B9B6B7B617B68022B03D10D4B19
:103B6000D3F838317B617B69DB43DAB2BB681A601A
:103B7000BB681B68002B03D1FB6800221A6002E0BF
:103B8000FB6801221A6000BF1C37BD465DF8047B4C
:103B9000704700BF0020005280B483B000AF78604F
:103BA000064B1B6A23F47F4204497B6813430B6274
:103BB00000BF0C37BD465DF8047B70470020005203
:103BC00080B483B000AF0B4BDB6903F47F437B60B1
:103BD0007B68B3F52A4F06D07B68B3F54C4F02D013
:103BE0004FF4AA4300E07B6818460C37BD465DF8E9
:103BF000047B70470020005280B485B000AF78602D
:103C000039600023FB600023BB607B6803F0010385
:103C1000002B09D03B6803F01003FA681343FB60E4
:103C2000BB6843F01003BB607B6803F40073002B98
:103C300009D03B6803F02003FA681343FB60BB68BC
:103C400043F02003BB607B6803F00203002B09D024
:103C50003B6803F04003FA681343FB60BB6843F022
:103C60004003BB607B6803F00403002B09D03B6872
:103C700003F08003FA681343FB60BB6843F08003E2
:103C8000BB607B6803F00803002B09D03B6803F49A
:103C90000033FA681343FB60BB6843F40033BB6036
:103CA0007B6803F01003002B09D03B6803F48023EA
:103CB000FA681343FB60BB6843F48023BB607B68F6
:103CC00003F02003002B09D03B6803F4C013FA680B
:103CD0001343FB60BB6843F4C013BB607B6803F015
:103CE0004003002B09D03B6803F40013FA68134328
:103CF000FB60BB6843F40013BB607B6803F4806324
:103D0000002B09D03B6803F48003FA681343FB607F
:103D1000BB6843F48003BB607B6803F40063002B43
:103D200009D03B6803F40003FA681343FB60BB68E7
:103D300043F40003BB607B6803F48053002B09D07D
:103D40003B6803F08073FA681343FB60BB6843F081
:103D50008073BB607B6803F40053002B09D03B6881
:103D600003F00073FA681343FB60BB6843F0007311
:103D7000BB607B6803F48073002B09D03B6803F0C1
:103D80000043FA681343FB60BB6843F00043BB6029
:103D90007B6803F08003002B09D03B6803F00053DD
:103DA000FA681343FB60BB6843F00053BB60074BEA
:103DB0001A6ABB68DB431A400449FB6813430B6271
:103DC00000BF1437BD465DF8047B704700200052E9
:103DD00080B483B000AF074BDB697B607A68064B29
:103DE00013407B607B6818460C37BD465DF8047B4A
:103DF000704700BF00200052F300FFFF80B485B081
:103E000000AFF860B9607A603B603B6803F0010383
:103E1000002B0DD0BB6803F178431A0A7B6803F1CD
:103E200078431B0A1B041A430E49FB681343CB62F9
:103E30003B6803F00203002B0ED0BB68A3F10163C3
:103E40001A0A7B68A3F101631B0A1B041A43054984
:103E5000FB681343C1F82C3100BF1437BD465DF831
:103E6000047B70470020005280B487B000AFF86038
:103E7000B9607A603B6000237B6100233B613B6853
:103E8000012B05D1174B9B6A7B614FF000633B61AF
:103E90003B68022B06D1134BD3F828317B614FF0DE
:103EA00001633B617B6903F00042FB681A607B6938
:103EB0001A020D4B13403A691A44BB681A607B69B9
:103EC0001B0CC3F30B027B681A607B681B681A0229
:103ED0003B691A447B681A6000BF1C37BD465DF819
:103EE000047B70470020005200FF0F0080B483B0B5
:103EF00000AF7860064B1B6A23F00C0204497B6814
:103F000013430B6200BF0C37BD465DF8047B70475E
:103F10000020005280B400AF044BDB6903F00C03B7
:103F20001846BD465DF8047B704700BF0020005274
:103F300080B485B000AFF860B9607A60FB6803F0C8
:103F40000103002B08D00D4B5A6C0D4B1340BA687F
:103F5000120C0A4913434B64FB6803F00203002B65
:103F600006D0064B5B6C9AB204497B6813434B64E2
:103F700000BF1437BD465DF8047B70470020005237
:103F80000000FFFF80B485B000AF78603960094B56
:103F90001B6CFB60FB681A047B681A60FA68064BAE
:103FA00013403A68136000BF1437BD465DF8047BC8
:103FB000704700BF002000520000FFFF80B485B0B2
:103FC00000AFF860B9607A60FB6803F00103002B72
:103FD00008D00D4BDA6C0D4B1340BA68120C0A492D
:103FE0001343CB64FB6803F00203002B06D0064B9F
:103FF000DB6C9AB204497B681343CB6400BF14376F
:10400000BD465DF8047B7047002000520000FFFFB2
:1040100080B485B000AF78603960094B9B6CFB6061
:10402000FB681A047B681A60FA68064B13403A680A
:10403000136000BF1437BD465DF8047B704700BFB6
:10404000002000520000FFFF80B485B000AFF86090
:10405000B9607A603B603B6803F00103002B0FD02E
:10406000BB6803F178431A0A7B6803F178431B0AA3
:104070001B041A43FB6803F000430F4913434B63CF
:104080003B6803F00203002B10D0BB68A3F101636F
:104090001A0A7B68A3F101631B0A1B041A43FB681D
:1040A00003F0004304491343C1F8343100BF14370F
:1040B000BD465DF8047B70470020005280B487B095
:1040C00000AFF860B9607A603B6000237B61002339
:1040D0003B613B68012B05D1174B1B6B7B614FF09C
:1040E00000633B613B68022B06D1134BD3F83031A0
:1040F0007B614FF001633B617B6903F00042FB6829
:104100001A607B691A020D4B13403A691A44BB6866
:104110001A607B691B0CC3F30B027B681A607B6817
:104120001B681A023B691A447B681A6000BF1C377F
:10413000BD465DF8047B70470020005200FF0F0071
:1041400080B483B000AF786039603B68012B0ED13A
:10415000134B1B6D124A23F007031365104B1A6DA6
:104160007B6813430E4A43F40073136511E00C4B54
:10417000D3F850310A4A23F00703C2F85031084BF4
:10418000D3F850217B681343054A43F40073C2F807
:10419000503100BF0C37BD465DF8047B704700BF4F
:1041A0000020005280B485B000AFF860B9607A603A
:1041B0007B68012B06D10A4AFB685365084ABB6835
:1041C000936507E0064AFB68C2F85431044ABB68AD
:1041D000C2F8583100BF1437BD465DF8047B704704
:1041E0000020005280B400AF044B3F221A6200232B
:1041F0001846BD465DF8047B704700BF0048025872
:1042000080B485B000AF78607B6803F00703FB6083
:104210000B4BDB68BB60BA684FF6FF031340BB6013
:10422000FB681A02BB681A43064B1343BB60044A7F
:10423000BB68D36000BF1437BD465DF8047B704790
:1042400000ED00E00000FA0580B400AF044BDB682D
:104250001B0A03F007031846BD465DF8047B704750
:1042600000ED00E080B483B000AF0346FB80B7F9F7
:104270000630002B0BDBFB8803F01F020749B7F960
:1042800006305B09012000FA02F241F8232000BF4A
:104290000C37BD465DF8047B704700BF00E100E0CD
:1042A00080B483B000AF0346FB80B7F90630002B23
:1042B00012DBFB8803F01F020A49B7F906305B09DD
:1042C000012000FA02F2203341F82320BFF34F8F80
:1042D00000BFBFF36F8F00BF00BF0C37BD465DF856
:1042E000047B704700E100E080B483B000AF034678
:1042F000FB80B7F90630002B0EDB0B4AB7F906300E
:104300005B09403352F82320FB8803F01F0322FA95
:1043100003F303F0010300E0002318460C37BD4609
:104320005DF8047B704700BF00E100E080B483B01B
:1043300000AF0346FB80B7F90630002B0CDBFB888F
:1043400003F01F020749B7F906305B09012000FAA4
:1043500002F2403341F8232000BF0C37BD465DF820
:10436000047B704700E100E080B483B000AF0346F7
:10437000FB80B7F90630002B0CDBFB8803F01F0233
:104380000749B7F906305B09012000FA02F26033F1
:1043900041F8232000BF0C37BD465DF8047B704711
:1043A00000E100E080B483B000AF0346FB80B7F9C2
:1043B0000630002B0EDB0B4AB7F906305B09803361
:1043C00052F82320FB8803F01F0322FA03F303F0C3
:1043D000010300E0002318460C37BD465DF8047B5E
:1043E000704700BF00E100E080B483B000AF034637
:1043F0003960FB80B7F90630002B0ADB3B68DAB284
:104400000C49B7F906301201D2B20B4483F80023ED
:104410000AE03B68DAB20849FB8803F00F03043B6B
:104420001201D2B20B441A7600BF0C37BD465DF8BC
:10443000047B704700E100E000ED00E080B483B051
:1044400000AF0346FB80B7F90630002B09DB0D4AAD
:10445000B7F90630134493F80033DBB21B09DBB223
:1044600009E0094AFB8803F00F03043B13441B7E59
:10447000DBB21B09DBB218460C37BD465DF8047B86
:10448000704700BF00E100E000ED00E080B489B0BB
:1044900000AFF860B9607A60FB6803F00703FB6166
:1044A000FB69C3F10703042B28BF0423BB61FB692D
:1044B0000433062B02D9FB69033B00E000237B6138
:1044C0004FF0FF32BB6902FA03F3DA43BB681A40CC
:1044D0007B699A404FF0FF317B6901FA03F3D943BE
:1044E0007B680B40134318462437BD465DF8047BB8
:1044F000704780B489B000AFF860B9607A603B6003
:10450000BB6803F00703FB61FB69C3F10703042BDE
:1045100028BF0423BB61FB690433062B02D9FB6966
:10452000033B00E000237B61FA687B69DA404FF0CF
:10453000FF31BB6901FA03F3DB431A407B681A6061
:104540004FF0FF327B6902FA03F3DA43FB681A404B
:104550003B681A6000BF2437BD465DF8047B704796
:1045600080B400AFBFF34F8F00BF064BDB6803F48E
:10457000E0620449044B1343CB60BFF34F8F00BF8D
:1045800000BFFDE700ED00E00400FA0580B582B051
:1045900000AF78607B68013BB3F1807F01D30123DA
:1045A0000FE00A4A7B68013B53600F214FF0FF3058
:1045B000FFF71AFF054B00229A60044B07221A608E
:1045C000002318460837BD4680BD00BF10E000E05C
:1045D00080B582B000AF78607868FFF711FE00BF49
:1045E0000837BD4680BD80B586B000AF0346B960D0
:1045F0007A60FB81FFF728FE78617A68B96878698C
:10460000FFF744FF0246B7F90E3011461846FFF790
:10461000EBFE00BF1837BD4680BD80B582B000AF4D
:104620000346FB80B7F906301846FFF71BFE00BFB4
:104630000837BD4680BD80B582B000AF0346FB8021
:10464000B7F906301846FFF72BFE00BF0837BD4606
:1046500080BD80B500AFFFF783FF80B582B000AFAB
:1046600078607868FFF792FF034618460837BD4622
:1046700080BD000080B400AFBFF35F8F00BF074B69
:104680005B6A064A23F480335362054B00225A606A
:1046900000BFBD465DF8047B704700BF00ED00E041
:1046A00090ED00E080B483B000AF78600B4A7B6887
:1046B00043F0010353600A4B5B6A094A43F48033B9
:1046C0005362BFF34F8F00BFBFF36F8F00BF00BFB8
:1046D0000C37BD465DF8047B704700BF90ED00E0ED
:1046E00000ED00E080B483B000AF78607B685A785A
:1046F0001D4B9A607B681B78002B29D01A4A7B6877
:104700005B68D3607B681B7B1A077B68DB7A1B06C0
:104710001A437B689B7ADB041A437B685B7B9B04B0
:104720001A437B689B7B5B041A437B68DB7B1B041F
:104730001A437B685B7A1B021A437B681B7A5B0017
:1047400013437A6812781146074A0B43136105E058
:10475000054B0022DA60044B00221A6100BF0C37BF
:10476000BD465DF8047B704790ED00E080B500AF7A
:10477000FFF76AFD0346184680BD80B584B000AFE0
:10478000B9607A603B600346FB81B7F90E3018468A
:10479000FFF754FE3B687A68B968FFF7AAFE00BFCE
:1047A0001037BD4680BD80B582B000AF0346FB80A8
:1047B000B7F906301846FFF7B9FD00BF0837BD4608
:1047C00080BD80B582B000AF0346FB80B7F90630EC
:1047D0001846FFF789FD034618460837BD4680BDD9
:1047E00080B582B000AF0346FB80B7F906301846AB
:1047F000FFF7BAFD00BF0837BD4680BD80B582B067
:1048000000AF0346FB80B7F906301846FFF7CAFD34
:10481000034618460837BD4680BD000080B483B00B
:1048200000AF78607B68042B06D1094B1B68084AEF
:1048300043F00403136005E0054B1B68044A23F0B2
:104840000403136000BF0C37BD465DF8047B70475E
:1048500010E000E080B500AF00F002F800BF80BDBE
:1048600080B400AF00BFBD465DF8047B7047000018
:1048700080B400AF074B1B681B0903F00F03072B25
:1048800001D1032300E001231846BD465DF8047BF7
:10489000704700BF00ED00E080B483B000AF7860E7
:1048A0007B681B6843F001027B681A6000BF0C370D
:1048B000BD465DF8047B704780B483B000AF78607C
:1048C0007B681B6823F001027B681A6000BF0C370D
:1048D000BD465DF8047B704780B485B000AFF860DA
:1048E000B9607A60FB681B6823F4F8527B68190290
:1048F000BB680B431A43FB681A6000BF1437BD4600
:104900005DF8047B7047000080B485B000AFF860AC
:10491000B9607A60FB689A68064B1340B9687A6898
:104920000A431A43FB689A6000BF1437BD465DF81E
:10493000047B704700F8FFFF80B483B000AF78605D
:104940007B689B6843F400427B689A6000BF0C3729
:10495000BD465DF8047B704780B483B000AF7860DB
:104960007B689B6823F400427B689A6000BF0C3729
:10497000BD465DF8047B704780B483B000AF7860BB
:1049800039607B683A681A6100BF0C37BD465DF834
:10499000047B704780B483B000AF786039607B6877
:1049A0001B6823F440123B681A437B681A6000BFFF
:1049B0000C37BD465DF8047B704780B483B000AF10
:1049C000786039607B685B6823F400423B681A4377
:1049D0007B685A6000BF0C37BD465DF8047B7047AA
:1049E00080B483B000AF7860064BD3F890200549BF
:1049F0007B681343C1F8903000BF0C37BD465DF8AB
:104A0000047B70470044025880B483B000AF7860E4
:104A1000074BD3F890207B68DB4305491340C1F86E
:104A2000903000BF0C37BD465DF8047B704700BF77
:104A30000044025880B483B000AF7860064BD3F8CE
:104A40009C2005497B681343C1F89C3000BF0C379C
:104A5000BD465DF8047B70470044025880B483B0C3
:104A600000AF7860074BD3F89C207B68DB43054997
:104A70001340C1F89C3000BF0C37BD465DF8047B85
:104A8000704700BF0044025880B584B000AF786022
:104A90000023FB737B681C4A934208D14FF400103B
:104AA000FFF79EFF4FF40010FFF7AEFF26E07B6894
:104AB000164A934208D14FF48000FFF791FF4FF45C
:104AC0008000FFF7A1FF19E07B68114A934208D1EB
:104AD0004FF40000FFF784FF4FF40000FFF794FF4E
:104AE0000CE07B680B4A934206D18020FFF7A2FFBF
:104AF0008020FFF7B3FF01E00123FB73FB7B184627
:104B00001037BD4680BD00BF005400400058004033
:104B1000005C0040001C005880B582B000AF786097
:104B200039607868FFF7C8FE3B6899683B68DB68C6
:104B30001A467868FFF7D0FE3B685B6819467868CC
:104B4000FFF71AFF7868FFF7A7FE7868FFF704FF02
:104B50003B6819693B689B691A467868FFF7D4FE81
:104B60003B681B69002B02D07868FFF7E5FE3B68C5
:104B70001B6819467868FFF70DFF3B685B691946AB
:104B80007868FFF71AFF002318460837BD4680BD36
:104B900080B483B000AF78607B6800221A607B68C5
:104BA00000225A607B6800229A607B680022DA60EB
:104BB0007B6800221A617B684FF400425A617B686F
:104BC00000229A6100BF0C37BD465DF8047B704738
:104BD00080B483B000AF7860064BD3F894200549C9
:104BE0007B681343C1F8943000BF0C37BD465DF8B5
:104BF000047B70470044025880B483B000AF7860F3
:104C0000074BD3F894207B68DB4305491340C1F878
:104C1000943000BF0C37BD465DF8047B704700BF81
:104C20000044025880B500AF0220FFF7D1FF0220F8
:104C3000FFF7E2FF0023184680BD000080B483B078
:104C400000AF786039600C493A680C4B13437A68BE
:104C500041F82230084A7B6852F823203968074B14
:104C60000B439A4201D1002300E0012318460C3780
:104C7000BD465DF8047B7047006402580003008065
:104C800080B483B000AF7860084A7B68203352F864
:104C90002330074A934201D1002300E00123184644
:104CA0000C37BD465DF8047B704700BF00640258B6
:104CB0000003008080B483B000AF7860074A7B684F
:104CC00052F82330002B01DA012300E000231846BC
:104CD0000C37BD465DF8047B704700BF0064025886
:104CE00080B483B000AF7860396006493B6843F414
:104CF00040727B6841F8232000BF0C37BD465DF849
:104D0000047B70470064025880B483B000AF7860C1
:104D100039607B681A043B681B0205491343C1F8DC
:104D2000403100BF0C37BD465DF8047B704700BFC3
:104D30000064025880B483B000AF7860074BD3F8AA
:104D400044319AB27B681B0404491343C1F84431CF
:104D500000BF0C37BD465DF8047B70470064025805
:104D600080B400AF044BD3F844311B0C1846BD4649
:104D70005DF8047B704700BF0064025880B483B0C4
:104D800000AF7860054B1A6804497B6813430B60D9
:104D900000BF0C37BD465DF8047B704700650258C4
:104DA00080B483B000AF7860064B1A687B68DB4341
:104DB000044913400B6000BF0C37BD465DF8047B0F
:104DC000704700BF0065025880B582B000AF0A4B43
:104DD000DB687B60084B1A687B68DB43064913403D
:104DE0000B60054A7B685360786800F007F800BFE5
:104DF0000837BD4680BD00BF0065025880B483B04F
:104E000000AF786000BF0C37BD465DF8047B70478B
:104E100080B400AF074B1B6803F40033B3F5003FC9
:104E200001D1012300E000231846BD465DF8047B54
:104E3000704700BF0044025880B400AF064B1B68A7
:104E400003F00403042B01D1012300E000231846E2
:104E5000BD465DF8047B70470044025880B400AF43
:104E6000044B1B6803F018031846BD465DF8047B2D
:104E7000704700BF0044025880B400AF074B1B6866
:104E800003F48073B3F5807F01D1012300E0002398
:104E90001846BD465DF8047B704700BF00440258C9
:104EA00080B400AF074B1B6803F40053B3F5005FF9
:104EB00001D1012300E000231846BD465DF8047BC4
:104EC000704700BF0044025880B400AF064B1B6F10
:104ED00003F00203022B01D1012300E00023184656
:104EE000BD465DF8047B70470044025880B400AFB3
:104EF000064B5B6F03F00203022B01D1012300E09C
:104F000000231846BD465DF8047B704700440258F4
:104F100080B400AF044B1B6903F038031846BD464C
:104F20005DF8047B704700BF0044025880B400AFB6
:104F3000044B9B6903F470631846BD465DF8047B1F
:104F4000704700BF0044025880B400AF044B9B6917
:104F500003F00F031846BD465DF8047B704700BFA1
:104F60000044025880B400AF044BDB6903F07003C7
:104F70001846BD465DF8047B704700BF00440258E8
:104F800080B400AF044BDB6903F4E0631846BD4610
:104F90005DF8047B704700BF0044025880B400AF46
:104FA000044B9B6903F070031846BD465DF8047B13
:104FB000704700BF0044025880B400AF044B1B6A26
:104FC00003F070031846BD465DF8047B704700BFD0
:104FD0000044025880B485B000AF78607B68DAB2D4
:104FE0000E4B1344FB60FB681A687B68190E7B68E4
:104FF0001B0A03F01F0301FA03F31A407B681B0A24
:1050000003F01F0322FA03F31A047B6813431846C4
:105010001437BD465DF8047B704700BF4C4402580E
:1050200080B582B000AF78607868FFF7D3FF0346A1
:1050300018460837BD4680BD80B483B000AF7860A5
:10504000044B9B6D03F0070318460C37BD465DF813
:10505000047B70470044025880B582B000AF78608E
:105060007868FFF7B7FF034618460837BD4680BD8E
:1050700080B582B000AF78607868FFF7ABFF034679
:1050800018460837BD4680BD80B582B000AF786055
:105090007868FFF79FFF034618460837BD4680BD76
:1050A00080B483B000AF7860044BDB6C03F48033D2
:1050B00018460C37BD465DF8047B70470044025823
:1050C00080B483B000AF7860044B5B6D03F4407331
:1050D00018460C37BD465DF8047B70470044025803
:1050E00080B483B000AF7860044B5B6D03F4401371
:1050F00018460C37BD465DF8047B704700440258E3
:1051000080B483B000AF7860044B5B6D03F4400360
:1051100018460C37BD465DF8047B704700440258C2
:1051200080B483B000AF7860044B1B6D03F08073D4
:1051300018460C37BD465DF8047B704700440258A2
:1051400080B483B000AF7860044BDB6C03F00303E2
:1051500018460C37BD465DF8047B70470044025882
:1051600080B483B000AF7860044BDB6C03F0300395
:1051700018460C37BD465DF8047B70470044025862
:1051800080B483B000AF7860044BDB6C03F0405315
:1051900018460C37BD465DF8047B70470044025842
:1051A00080B582B000AF78607868FFF713FF0346E0
:1051B00018460837BD4680BD80B483B000AF786024
:1051C000044B1B6D03F4401318460C37BD465DF8C5
:1051D000047B70470044025880B483B000AF78600D
:1051E000044B1B6D03F0405318460C37BD465DF869
:1051F000047B70470044025880B483B000AF7860ED
:10520000044B1B6D03F0004318460C37BD465DF898
:10521000047B70470044025880B483B000AF7860CC
:10522000044B9B6D03F4403318460C37BD465DF8C4
:10523000047B70470044025880B400AF044B9B6A63
:1052400003F003031846BD465DF8047B704700BFBA
:105250000044025880B400AF074B1B6803F0007392
:10526000B3F1007F01D1012300E000231846BD46C1
:105270005DF8047B704700BF0044025880B400AF63
:10528000074BDB6A03F48033B3F5803F01D1012380
:1052900000E000231846BD465DF8047B704700BF60
:1052A0000044025880B400AF074BDB6A03F40033BC
:1052B000B3F5003F01D1012300E000231846BD46AD
:1052C0005DF8047B704700BF0044025880B400AF13
:1052D000074BDB6A03F48023B3F5802F01D1012350
:1052E00000E000231846BD465DF8047B704700BF10
:1052F0000044025880B400AF064BDB6A03F00103A0
:10530000012B01D1012300E000231846BD465DF8C2
:10531000047B70470044025880B400AF044B1B6B01
:10532000C3F3080301331846BD465DF8047B70479C
:105330000044025880B400AF044B9B6A1B0903F081
:105340003F031846BD465DF8047B70470044025891
:1053500080B400AF054B1B6B5B0A03F07F03013386
:105360001846BD465DF8047B704700BF00440258F4
:1053700080B400AF054B1B6B1B0C03F07F030133A4
:105380001846BD465DF8047B704700BF00440258D4
:1053900080B400AF054B1B6B1B0E03F07F03013382
:1053A0001846BD465DF8047B704700BF00440258B4
:1053B00080B400AF044B5B6BDB08C3F30C031846EF
:1053C000BD465DF8047B70470044025880B400AFCE
:1053D000074B1B6803F00063B3F1006F01D1012399
:1053E00000E000231846BD465DF8047B704700BF0F
:1053F0000044025880B400AF074BDB6A03F400237B
:10540000B3F5002F01D1012300E000231846BD466B
:105410005DF8047B704700BF0044025880B400AFC1
:10542000074BDB6A03F48013B3F5801F01D101231E
:1054300000E000231846BD465DF8047B704700BFBE
:105440000044025880B400AF074BDB6A03F400133A
:10545000B3F5001F01D1012300E000231846BD462B
:105460005DF8047B704700BF0044025880B400AF71
:10547000064BDB6A03F01003102B01D1012300E07F
:1054800000231846BD465DF8047B7047004402586F
:1054900080B400AF044B9B6BC3F308030133184681
:1054A000BD465DF8047B70470044025880B400AFED
:1054B000044B9B6A1B0B03F03F031846BD465DF887
:1054C000047B70470044025880B400AF054B9B6BCF
:1054D0005B0A03F07F0301331846BD465DF8047B89
:1054E000704700BF0044025880B400AF054B9B6B6F
:1054F0001B0C03F07F0301331846BD465DF8047BA7
:10550000704700BF0044025880B400AF054B9B6B4E
:105510001B0E03F07F0301331846BD465DF8047B84
:10552000704700BF0044025880B400AF044BDB6BEF
:10553000DB08C3F30C031846BD465DF8047B7047D7
:105540000044025880B400AF074B1B6803F00053BF
:10555000B3F1005F01D1012300E000231846BD46EE
:105560005DF8047B704700BF0044025880B400AF70
:10557000074BDB6A03F48003B3F5800F01D10123ED
:1055800000E000231846BD465DF8047B704700BF6D
:105590000044025880B400AF074BDB6A03F40003F9
:1055A000B3F5000F01D1012300E000231846BD46EA
:1055B0005DF8047B704700BF0044025880B400AF20
:1055C000074BDB6A03F08073B3F1807F01D10123C5
:1055D00000E000231846BD465DF8047B704700BF1D
:1055E0000044025880B400AF074BDB6A03F48073B9
:1055F000B3F5807F01D1012300E000231846BD46AA
:105600005DF8047B704700BF0044025880B400AFCF
:10561000044B1B6CC3F3080301331846BD465DF809
:10562000047B70470044025880B400AF044B9B6A6F
:105630001B0D03F03F031846BD465DF8047B704721
:105640000044025880B400AF054B1B6C5B0A03F0AA
:105650007F0301331846BD465DF8047B704700BFE9
:105660000044025880B400AF054B1B6C1B0C03F0C8
:105670007F0301331846BD465DF8047B704700BFC9
:105680000044025880B400AF054B1B6C1B0E03F0A6
:105690007F0301331846BD465DF8047B704700BFA9
:1056A0000044025880B400AF044B5B6CDB08C3F3CA
:1056B0000C031846BD465DF8047B70470044025851
:1056C00080B500AF3E4B1B6803F00F03062B07D8D5
:1056D0003B4B1B6823F00F03394A43F00703136069
:1056E000384B1B68374A43F00103136000BFFFF7D4
:1056F000A3FB0346002BFAD0324B00221A61314B38
:105700001A683049304B13400B6000BFFFF7A2FD11
:105710000346002BFAD100BFFFF758FE0346002BCB
:10572000FAD100BFFFF70EFF0346002BFAD1254B3D
:1057300000229A61234B0022DA61224B00221A6276
:10574000204B224A9A621F4B214ADA621D4B214AA2
:105750001A631C4B00225A631A4B1E4A9A63194B58
:105760000022DA63174B1B4A1A64164B00225A6454
:10577000144B1B68134A23F480231360114B00223F
:105780001A66104B9A6E0F4940F2FF7313438B66F3
:105790000C4BD3F8D0300B4A43F48033C2F8D030EE
:1057A000074B1B6803F00803002B07D0044B1B6852
:1057B00023F00F03024A43F00703136000BF80BDCC
:1057C000002000520044025845EDF6EA00020202B1
:1057D0000000FF018002010180B582B000AF786057
:1057E00001F01AFB02467B681A607B681B6818464A
:1057F00001F074FB02467B689A607B689B681846E0
:1058000001F082FB02467B68DA607B689B68184681
:1058100001F092FB02467B681A617B689B68184620
:1058200001F0A2FB02467B685A617B689B681846C0
:1058300001F0B2FB02467B689A6100BF0837BD46A3
:1058400080BD000080B58AB002AF78600023FB61A4
:105850000023BB61FFF7F0FC78617B69022B1FD04E
:105860007B69022B24D87B69002B03D07B69012B39
:105870000ED01DE0FFF7E0FA0346002B1AD0FFF729
:10588000EDFA0346DB08384A22FA03F3FB6111E024
:10589000FFF7F2FA0346002B0ED0344BFB610BE00E
:1058A000FFF7B6FA0346002B08D0314BFB6105E049
:1058B00000BF04E000BF02E000BF00E000BF7B6863
:1058C00000221A607B6800225A607B6800229A607E
:1058D000FFF730FD3861FFF71FFDF860FFF70AFDA5
:1058E0000346002B02D0FFF763FDB8613B69002B34
:1058F00035D0FFF7C3FC0346002B0CD0FFF728FD83
:1059000003460093BB69FA683969F86900F064F9E5
:1059100002467B681A60FFF7C5FC0346002B0CD0DB
:10592000FFF726FD03460093BB69FA683969F869F9
:1059300000F052F902467B685A60FFF7C7FC034645
:10594000002B0CD0FFF724FD03460093BB69FA68D7
:105950003969F86900F040F902467B689A6000BF37
:105960002037BD4680BD00BF0090D00300093D0038
:1059700000127A0080B58AB002AF78600023FB6124
:105980000023BB61FFF758FC78617B69022B1FD0B5
:105990007B69022B24D87B69002B03D07B69012B08
:1059A0000ED01DE0FFF748FA0346002B1AD0FFF790
:1059B00055FA0346DB08384A22FA03F3FB6111E08B
:1059C000FFF75AFA0346002B0ED0344BFB610BE075
:1059D000FFF71EFA0346002B08D0314BFB6105E0B0
:1059E00000BF04E000BF02E000BF00E000BF7B6832
:1059F00000221A607B6800225A607B6800229A604D
:105A0000FFF754FD3861FFF743FDF860FFF72EFD07
:105A10000346002B02D0FFF787FDB8613B69002BDE
:105A200035D0FFF7E7FC0346002B0CD0FFF74CFD09
:105A300003460093BB69FA683969F86900F0CCF84D
:105A400002467B681A60FFF7E9FC0346002B0CD086
:105A5000FFF74AFD03460093BB69FA683969F869A4
:105A600000F0BAF802467B685A60FFF7EBFC034689
:105A7000002B0CD0FFF748FD03460093BB69FA6882
:105A80003969F86900F0A8F802467B689A6000BF9F
:105A90002037BD4680BD00BF0090D00300093D0007
:105AA00000127A0080B58AB002AF78600023FB61F3
:105AB0000023BB61FFF7C0FB78617B69022B1FD01D
:105AC0007B69022B24D87B69002B03D07B69012BD7
:105AD0000ED01DE0FFF7B0F90346002B1AD0FFF7F8
